:020000040800F2
:10000000405C0020DD010008DD31000825250008E6
:10001000D931000895110008A75000080000000021
:100020000000000000000000000000004501000882
:100030005116000800000000890100083542000840
:10004000F7010008F7010008F7010008F7010008B0
:10005000F7010008F70100084D18000865180008AE
:10006000F7010008F7010008F7010008F701000890
:10007000F7010008F7010008F7010008F701000880
:10008000E911000851120008F7010008F701000803
:10009000F7010008F7010008F70100087D180008C3
:1000A000F7010008F7010008F7010008F701000850
:1000B000F7010008D5420008F7010008F701000821
:1000C000F7010008F7010008F7010008F701000830
:1000D000F7010008F54D0008354E0008814E000874
:1000E000F7010008F7010008F7010008F701000810
:1000F000F7010008F7010008F7010008F701000800
:10010000F7010008F7010008F7010008F7010008EF
:10011000354B0008854B000891430008F7010008A3
:10012000F7010008F7010008F7010008F7010008CF
:10013000DFF80CD000F02CFC004800473D660008BA
:10014000405C0020224B19680868B0E8F00F80F38B
:100150000988BFF36F8F4FF0000080F311884EF0D5
:100160000D0E70470000000006480068006880F32C
:10017000088862B661B6BFF34F8FBFF36F8F00DFA1
:1001800000BF00BF08ED00E0EFF30980BFF36F8F01
:100190000F4B1A6820E9F00F106008B54FF05000BF
:1001A00080F31188BFF34F8FBFF36F8F07F0AEFD61
:1001B0004FF0000080F31188BDE808401968086816
:1001C000B0E8F00F80F30988BFF36F8F704700BF6E
:1001D000D0000020EFF30580704700000648074874
:1001E00080470047FEE7FEE7FEE7FEE7FEE7FEE7A3
:1001F000FEE7FEE7FEE7FEE7754200083101000872
:1002000040EA01039B0703D009E008C9121F08C098
:10021000042AFAD203E011F8013B00F8013B521E18
:10022000F9D27047D2B201E000F8012B491EFBD28F
:1002300070470022F6E710B513460A4604461946F1
:10024000FFF7F0FF204610BD421E12F8013F002BC1
:10025000FBD111F8013B02F8013B002BF9D17047AB
:1002600030B505462A460B4612F8010B13F8014B30
:1002700008B1A042F8D01CB1002802D06D1CF1E7F3
:10028000284630BD10B5002200E0521C835C8C5C17
:10029000A34201D1002BF8D1D8B2E1B2401A10BD6F
:1002A00010B5044600E0401C0378002BFBD100E0B1
:1002B000401C521E04D311F8013B0370002BF7D1F0
:1002C00000210170204610BDF0B480EA0102D40F75
:1002D0004200B2EB410F02D20246084611464A00E4
:1002E00042D0C30DDDB2C1F3C752AD1A202D35DAAD
:1002F000C1F3160141F4000204B15242C5F12006D7
:1003000002FA06F12A411044B3EBD05F23D0C4B106
:10031000012DA0EBC35009DCF0BC4FF0004202EA13
:10032000C352DBB200F5000000F0A6BA400000F1B5
:10033000807000EBC350A0F1807040EAD17049009A
:1003400009E0490841EAC071A0EBC35000F5000084
:10035000400800EBC350F0BC00F085BA61420122B6
:1003600002EB4101001BF6E7F0BC704781F0004151
:10037000AAE780F00040A7E780EA010210B502F08A
:100380000043400022D04A001FD0010E01EB126151
:10039000C0F35600C2F3560240F4000042F40002DB
:1003A000A0FB022000047F39140400D0401C50EA56
:1003B000124001D44000491EC2B20C0604EBD0101A
:1003C000401C4008802A02D003E0002010BD20F02D
:1003D0000100002900DA0020184310BD30B480EA83
:1003E000010202F0004530F0004221F0004013D03D
:1003F00090B1C30DD40DC2F31601C0F31600E41A78
:1004000041F4000140F400027D34914201D3641CA8
:1004100000E04900002C02DA30BC002070474FF4A5
:1004200000000023914201D3891A034340084FEA98
:100430004101F7D151B1914202D14FF0004105E0A5
:1004400002D24FF0010101E06FF0010103EBC45053
:10045000284430BC00F007BA2DE9FE4F804681EAFF
:100460000300C00F0C46009021F0004123F000452E
:10047000B8EB0200A94105D24046214690461C46F1
:100480000B46024623F00040104347D0270DC7F328
:100490000A00C3F30A510290401A019040286BDA17
:1004A000C3F3130040F4801B0098924620B1002350
:1004B000D2EB030A63EB0B0B01985946C0F14002E3
:1004C000504600F0AFF906460D4650465946019A8F
:1004D00000F0B7F910EB08006141002487EA1152DF
:1004E00084EAE7731A4340D0009A62B3019A012A62
:1004F0004FEA075215DC001B61EB02014FF000428E
:1005000002EA0752CDE90042001C41F58011324653
:100510002B4600F0EEF903B0BDE8F08F40462146CF
:10052000F9E7001B61EB0201001C41F58013001884
:100530005B412018A2F5001747EB030140EAD57094
:10054000B6196D4111E06D084FEA360645EAC075EF
:100550004FEA0752001B61EB0201001C41F58011BC
:1005600049084FEA30000019514132462B4603B08A
:10057000BDE8F04F00F0AEB9009801224000002322
:10058000D0EB020263EBE073009821464FEAE0747F
:10059000B8EB000061EB0401E9E783F000435BE79F
:1005A00081F0004158E72DE9FE4F81EA030404F091
:1005B000004421F0004100944FF0000B23F0004371
:1005C00050EA01045ED052EA03045BD0C3F30A543C
:1005D000C1F30A552C44A4F2F3340194A0FB025455
:1005E000C1F3130141F48011C3F3130343F48013E7
:1005F00001FB024400FB034E840A970A44EA81543B
:1006000047EA8357A4FB076802958D0A05FB078517
:100610004FEA932C04FB0C542705029D4FEA065821
:1006200047EA1637B5EB08056EEB070C870E920EFE
:1006300047EA811742EA8312A7FB0201B6EB0B01DE
:1006400064EB00042B0D43EA0C335E1844EB1C50A2
:10065000DA465146E7FB0201C5F313044FEA0B33B8
:1006600043EA14534FEA0432019C43EA0603A4F11F
:100670000C040294009CCDE900B400F03AF903B0F8
:10068000BDE8F08F00200146F9E72DE9F04D81EA41
:10069000030404F0004B21F0004514464FF0000A1B
:1006A00023F0004150EA050220D054EA01021DD097
:1006B000C5F30A570246C5F31303C1F31300C1F390
:1006C0000A5640F4801543F48013A7EB0608101B6C
:1006D000D64608F2FD3873EB050002D308F1010895
:1006E00001E092185B41B8F1000F03DA00200146E7
:1006F000BDE8F08D00204FF48011064684460EE0E0
:10070000171B73EB050705D3121B63EB05030643A9
:100710004CEA010C49084FEA300092185B4150EA5C
:100720000107EDD152EA030012D082EA040083EA05
:100730000501084305D0101BAB4106D2012200235E
:1007400006E000224FF0004302E06FF00102531078
:100750001AEB06004CEB085110EB0A0041EB0B01C1
:10076000BDE8F04D00F0B6B8C10F80EAE070084473
:10077000CA079623002100F07FB896230022114675
:1007800000F07AB800F0004230F000400AD0C10D0D
:1007900001F56071C0F3160042EA0151C20840073A
:1007A0001143704700200146704701F0004330B408
:1007B00021F0004150EA010206D00A0DA2F5607254
:1007C000C1F31301002A02DC30BC00207047440F43
:1007D00044EAC104C100E01830BC00EBC25000F094
:1007E00042B80000002801DBC0F10040002901DB15
:1007F000C1F100418842704730B50B4601460020E8
:100800002022012409E021FA02F59D4205D303FAD2
:1008100002F5491B04FA02F52844151EA2F1010253
:10082000F1DC30BD202A04DB203A00FA02F100207E
:1008300070479140C2F1200320FA03F3194390401E
:100840007047202A06DBCB17203A41FA02F043EA30
:10085000E07306E041FA02F3D040C2F12002914079
:100860000843194670470029A8BF7047401C49003B
:1008700008BF20F00100704710B4B0FA80FC00FA05
:100880000CF050EA010404BF10BC704749B1CCF130
:10089000200421FA04F411FA0CF118BF01212143BC
:1008A0000843A3EB0C01CB1D4FEA00614FEA102077
:1008B00042BF002010BC704700EBC3501044002919
:1008C000A4BF10BC7047401C490008BF20F00100C5
:1008D00010BC704710B5141E73F1000408DA401CF8
:1008E00041F1000192185B411A4301D120F001004F
:1008F00010BD2DE9F04D92469B4611B1B1FA81F23F
:1009000002E0B0FA80F220329046FFF78BFF0446F7
:100910000F4640EA0A0041EA0B0153465A46084393
:1009200013D0114653EA010019D0C8F140025046D5
:1009300000F040F805460E46504659464246FFF73D
:1009400071FF084305D0012004E020463946BDE888
:10095000F08D0020054346EAE0762C4337430A98A1
:100960006305E40AA0EB08000022FD0A44EA4754AC
:100970000A3002D500200146E9E701051019694156
:10098000DDE9084500196941BDE8F04DA2E7000026
:10099000064C074D06E0E06840F0010394E80700CC
:1009A00098471034AC42F6D3FFF7C6FBEC99000829
:1009B0000C9A0008202A04DB203A21FA02F00021D8
:1009C000704721FA02F3D040C2F12002914008435F
:1009D0001946704770B58C1810F8015B15F00703C5
:1009E00001D110F8013B2A1106D110F8012B03E0C8
:1009F00010F8016B01F8016B5B1EF9D12B0705D4D0
:100A00000023521E0DD401F8013BFAE710F8013B18
:100A1000CB1A921C03E013F8015B01F8015B521E34
:100A2000F9D5A142D8D3002070BD00002DE9FC5FAC
:100A300004464FF000080027012C02DB0020BDE82F
:100A4000FC9F002544E0681C86B23DE0354800EB81
:100A5000450030F81400334901EB460131F8141019
:100A600088422FDD2F4800EB450030F814002D4957
:100A700001EB460131F8141008442A4901EB450105
:100A800021F81400274800EB450030F814002549F0
:100A900001EB460131F81410401A224901EB4601DE
:100AA00021F814001F4800EB450030F814001D49E0
:100AB00001EB460131F81410401A1A4901EB4501C7
:100AC00021F81400701C86B21E2EBFDB681C85B294
:100AD0001D2DB8DB062518261FE0781CFFF744FE05
:100AE00001903846FFF749FE83464146FFF744FC34
:100AF00082460C4901EB450131F81400FFF73DFE39
:100B000051460090FFF7E0FB81460199FFF766FC34
:100B10008046681C85B2781C87B2B542DDDB404652
:100B20008DE700006C0200202DE9FC5F04464FF0C9
:100B300000080027032C02DB0020BDE8FC9F0025F5
:100B400054E0681C86B24DE005EB45003D4901EBE1
:100B5000400030F8140006EB46013A4A02EB41012E
:100B600031F8141088423BDD05EB4500114601EBDE
:100B7000400030F8140006EB460102EB410131F869
:100B80001410084405EB450102EB410121F8140063
:100B900005EB4500114601EB400030F8140006EB70
:100BA000460102EB410131F81410401A06EB4601F0
:100BB00002EB410121F8140005EB4500114601EB61
:100BC000400030F8140006EB460102EB410131F819
:100BD0001410401A05EB450102EB410121F8140005
:100BE000701C86B21E2EAFDB681C85B21D2DA8DBE3
:100BF0000625182621E0781CFFF7B6FD019038463F
:100C0000FFF7BBFD83464146FFF7B6FB824605EB87
:100C100045010C4A02EB410131F81400FFF7ADFD2C
:100C200051460090FFF750FB81460199FFF7D6FB34
:100C30008046681C85B2781C87B2B542DBDB404633
:100C40007BE70000A802002000B58BB00121084618
:100C500002F0CCFB114800F033FB11480090114822
:100C60000190002002901E2003900020049080201C
:100C70000590400006908000079020200890000218
:100C8000099000200A906946044800F0D5FB012134
:100C9000024800F009FB0BB000BD00000800024054
:100CA0004C2401406C02002000B585B001214FF4B6
:100CB000207002F0CBFB4FF4004002F08BFB204889
:100CC00000F000F90020009001208DF804008DF85C
:100CD00005004FF4602002900020039001208DF861
:100CE00010006946164800F02FF9012000F0C6F9FF
:100CF000072301221021124800F04EF9FFF7A4FF4C
:100D000001210F4800F0D3F801210D4800F0C4F88C
:100D10000B4800F09DF900BF094800F00BF90028CE
:100D2000FAD1074800F0A4F900BF054800F0F8F830
:100D30000028FAD10121024800F08FF905B000BD6A
:100D40000024014000B58BB00121022002F04EFBCF
:100D5000114800F0B5FA11480090114801900020A8
:100D600002905A20039000200490802005904000BB
:100D70000690800007902020089000020990002033
:100D80000A906946044800F057FB0121024800F030
:100D90008BFA0BB000BD0000580402404C3C0140EF
:100DA000A802002000B587B0012148F2900002F0AF
:100DB0004DFB4FF4004002F00DFB4020ADF8040065
:100DC00000208DF8070001A9304801F09FF90520A7
:100DD000ADF8040001A92E4801F098F914208DF80F
:100DE00007001820ADF8040001A9284801F08EF989
:100DF0001821264801F067FA264800F063F8002021
:100E0000029001208DF80C008DF80D004FF4602049
:100E100004900020059003208DF8180002A91D48B9
:100E200000F092F80723012204211A4800F0B4F8D8
:100E3000072302220A21174800F0AEF807230322F5
:100E40000C21144800F0A8F8FFF77CFF012111489D
:100E500000F02DF801210F4800F01EF80D4800F0B9
:100E6000F7F800BF0B4800F065F80028FAD10948F0
:100E700000F0FEF800BF074800F052F80028FAD151
:100E80000121044800F0E9F807B000BD001C014052
:100E900000100140003C014021B1826842F0010293
:100EA000826003E0826822F001028260704721B113
:100EB000826842F48072826003E0826822F4807269
:100EC0008260704710B504461248844208D101215F
:100ED000401502F0CBFA0021601502F0C7FA17E0C6
:100EE0000D48844208D10121001502F0BFFA00210B
:100EF000201502F0BBFA0BE00848844208D101211A
:100F0000C80302F0B3FA00214FF4004002F0AEFA39
:100F100010BD00000024014000280140003C0140B9
:100F2000014600208A6802F004020AB1012000E0B4
:100F300000207047014600208A6802F008020AB1CA
:100F4000012000E00020704730B502460020002359
:100F500050680F4C20400D790C6844EA052420436A
:100F6000506090680B4C2040D1E902542C434D79DD
:100F700044EA450420439060D06A20F470000C7C61
:100F8000641EE4B2234340EA0350D06230BD000047
:100F9000FFFEF0FFFDF7F1FFF0B504460D4600201F
:100FA0000021092D11DDE068A5F10A0606EB4607D0
:100FB000072606FA07F18843A5F10A0606EB46065E
:100FC00003FA06F10843E0600CE0206905EB4507F1
:100FD000072606FA07F1884305EB450603FA06F1F2
:100FE00008432061072A0FDA606B561E06EB86075E
:100FF0001F2606FA07F18843561E06EB860605FAF9
:1010000006F10843606322E00D2A0FDA206BD61F39
:1010100006EB86071F2606FA07F18843D61F06EB64
:10102000860605FA06F10843206310E0E06AA2F1A3
:101030000D0606EB86071F2606FA07F18843A2F184
:101040000D0606EB860605FA06F10843E062F0BDE0
:10105000816841F008018160704721B1826842F4E3
:10106000A002826003E0826822F4A00282607047DE
:10107000816841F0040181607047000030B1074988
:10108000096841F40001054A116005E00349096857
:1010900021F40001014A116070470000082401405A
:1010A0001FB524A103C9CDE9020106220421684627
:1010B00000F034FB02A96846FFF7E4F828B92822BB
:1010C00020211E4800F02AFB28E04FF416501B494F
:1010D000086001204860022088600320C860042066
:1010E00008820620887416488861C86148610862D1
:1010F00048620622042102A800F071FB322004F0AD
:10110000A9FB282220210D4800F069FB642004F08F
:101110005DFB28222021094800F000FB002009493E
:10112000087000F039F80849086000200349C1F848
:1011300074011FBD636865636B0000005C030020E1
:1011400000002041480000204C00002010B5012084
:1011500002F09CF9002002F099F910BD08B5014693
:1011600000200090034800900098084400900098E8
:10117000008808BD006C004008B500220092044AB7
:101180000092009A02440092009A116008BD00008B
:10119000006C004000BFFEE710B500241148006855
:1011A00008B9002010BD102006F09CF8044600206D
:1011B000206020710B480068A0600A480068C06881
:1011C00040B108480068C068846006480068C0688C
:1011D000E06001E00020E06002480068C460204652
:1011E000E0E700006800002010B54FF4001000F0A8
:1011F0000DF910B30021114800F056F84FF480109B
:1012000000F044F84FF4A0300D49086006E00C49A6
:101210000868411E0A4A116000B905E009490A48F8
:1012200001F038FB0028F2D000BF0121064801F090
:1012300025FB002005490968087010BD6C000240BC
:1012400078000020040000100054004080000020BE
:1012500010B54FF0007000F0D9F878B101210848BE
:1012600001F00CFB0021074800F01EF84FF08070E1
:1012700000F00CF8002004490968088010BD000047
:1012800000540040800002407C00002000F08051AB
:1012900011B10349086001E002494860704700004D
:1012A000040402400000024021B1026842F0010241
:1012B000026004E002684FF6FE731A400260704755
:1012C00001684FF6FE72114001600021016041602B
:1012D0008160C1604B49884208D14A490839496850
:1012E00041F00F01474A083A51608AE045491431FC
:1012F000884208D143490839496841F0F001414A20
:10130000083A51607DE03F492831884208D13D4983
:101310000839496841F470613A4A083A516070E00E
:1013200038493C31884208D136490839496841F486
:101330007041344A083A516063E032495031884282
:1013400008D130490839496841F470212D4A083ADA
:10135000516056E02B496431884208D12949083947
:10136000496841F47001274A083A516049E025492B
:101370007831884208D123490839496841F07061C1
:10138000204A083A51603CE01F49884206D1011FBB
:10139000096841F00F01021F116032E01A4914314F
:1013A000884208D11849091F096841F0F001164A1E
:1013B000121F116025E014492831884208D11249D2
:1013C000091F096841F470610F4A121F116018E08B
:1013D0000D493C31884208D10B49091F096841F485
:1013E0007041094A121F11600BE0074950318842D1
:1013F00007D10549091F096841F47021024A121FEB
:1014000011607047080002400804024001460020B5
:10141000002201F0805313B1054B1A6801E0054B1F
:101420001A6802EA01030BB1012000E000207047B6
:10143000000402400000024010B50022026847F696
:10144000F0739A430C6A8B6823430C6923434C69FD
:1014500023438C692343CC6923434C6A23438C6A1E
:1014600023431A430260CB6843600B6883604B6878
:10147000C36010BD08B50121202001F0E7FF022064
:10148000ADF8000010208DF8030003208DF8020055
:101490006946044800F03AFE3221112002F088FF2C
:1014A00008BD0000001401402DE9FF5F00215648EF
:1014B000FFF7D3FD00205549C1F84801FFF734FB81
:1014C00080465349FEF758FF07465249FEF754FF3E
:1014D00006464FF08B41FEF781FF05464E49FEF769
:1014E00048FF04460021FEF7EFFE4849C1F84C01D1
:1014F0000120FFF719FB46490090FEF73DFF4549E3
:101500000190FEF739FF83464FF08B41FEF766FFEF
:101510008246FFF737F98046404A414BFFF7B5F85E
:101520000646404A404BFFF73EF804463F4A404BD0
:10153000FEF792FFCDE90201FFF737F93349C1F811
:1015400040010220FFF7F0FA31490090FEF714FF46
:1015500030490190FEF710FF4FF08B410290FEF7EB
:101560003DFF0390FFF70EF906462C4A2C4BFFF780
:101570008CF880462B4A2C4BFFF715F804462B4A73
:101580002B4BFEF769FF8246FFF70FF91F49C1F8A1
:10159000440101211C48FFF760FD00212548FFF7A9
:1015A0005CFD0020FFF742FA19490190FEF7E4FEC6
:1015B0004FF08B410290FEF711FF0390FFF7E2F826
:1015C00006461D4A1D4BFEF7EBFF82461C4A1D4B8B
:1015D000FFF75BF8804600221B4BFEF73DFF0446F9
:1015E000FFF7E3F80949C1F8380101211148FFF775
:1015F00034FD1649081F03F03BFF02F01FFA02F00A
:101600002DFABDE8FF9F0000003C01405C03002074
:101610003333534000007A440000FA44E3A59BC4EE
:1016200020B0DA3F39B4C876BE9F7ABFB1E1E99500
:10163000B2EC374000240140E17A14AE47E1F63FB6
:1016400022FDF675E09C713F00003940C80400207F
:101650007047000010B504461CB10C480068844275
:1016600000D110BDE06830B1D4E90210C860D4E9FF
:101670000201886002E00020A168C86000202060AC
:101680002071204606F032F800BFEAE7680000202B
:1016900008B501F095FB00F08BF9FFF705FBFFF7AC
:1016A00081FB02F0CDFF00F08BFC02F09DF901F010
:1016B00067FE03F045FEFFF7DDFE01F073FD01F06C
:1016C0003FFD01F05DFB01F065F94FF4165101207B
:1016D00003F07EFA4FF4E131022003F079FA4FF47F
:1016E0001651032003F074FA44F62061062001F03D
:1016F00015F900204FF4614301221146009004F0D7
:10170000DDFB04F04DF9044800F0AEFE02F09AFD56
:10171000FFF7C6FC08BD0000DB0400202DE9F04106
:1017200007460D461646002472B600BF4FF000086B
:10173000002000F0DBFFA021002001F055F8002080
:1017400000F088FF10B94FF001080FE029120020C7
:1017500001F04AF8002000F07DFF10B94FF00108B9
:1017600004E0E9B2002001F03FF800BFB8F1010F3A
:1017700004D12046611C8CB21428D7DB142C00DB6A
:1017800027E0002000F066FF00B922E0002000F012
:10179000ADFFA121002001F027F8002000F05AFF42
:1017A00000B916E0002411E0002000F0F9FE3855E1
:1017B000701EA04204DD0121002000F0B5FE03E010
:1017C0000021084600F0B0FE601C84B2B442EBDB9E
:1017D00000BF002000F0CCFF62B6BDE8F0812DE92B
:1017E000F04780460C46154600262846E91705EBCB
:1017F000D1614911491C1FFA81FAB14621E0204606
:10180000E11704EBD1614911A4EB4111C1F12001B1
:101810000FB2B819A84201DDA81B07B2BAB208EB93
:101820000600214601F024FD00B90CE0F01986B253
:10183000E01984B2142003F0C9FF09F101001FFA76
:1018400080F9D145DBDB00BFBDE8F08710B5012092
:1018500000F05EF802480068401C0149086010BDB5
:10186000A000002010B5022000F052F802480068E5
:10187000401C0149086010BDA400002020480068F9
:1018800000F0800078B11E481430006800F080003D
:1018900048B11C480068401C1A490860802018495B
:1018A000143108602AE01648006800F4807080B1A6
:1018B00013481430006800F4807050B1124800687A
:1018C000401C114908604FF480700D4914310860C4
:1018D00014E00B48006800F4007078B10848143038
:1018E000006800F4007048B108480068401C0749CF
:1018F00008604FF40070024914310860704700001E
:1019000000040140A8000020AC000020B00000202E
:101910000149086070470000140401400021234978
:101920008279002A3AD00A46126803689A430B4625
:101930001A600A1D126803689A430B1D1A60027927
:1019400011440A6803681A430A60184A0832126888
:1019500003689A43154B08331A601A1D126803680E
:101960009A43124B0C331A604279102A0ED11A1F77
:10197000126803681A430D4B08331A601A1D126867
:1019800003681A43094B0C331A600DE0074942798A
:1019900011440A6803681A430A6005E00279114499
:1019A0000A6803689A430A60704700000004014017
:1019B00008B501218C2001F049FD0320ADF800009D
:1019C00010208DF8030003208DF8020069460748B7
:1019D00000F09CFB4FF44040ADF8000048208DF82B
:1019E00003006946024800F091FB08BD000C01406D
:1019F000001C014010B51F48D0F874011E49096849
:101A0000884213D01B48D0F874011B49086001219B
:101A1000642001F089FC1748B0F87A0140F0020018
:101A20001449A1F87A01002014490880114890F85F
:101A30007A0100F00200D8B110480088C82805DA01
:101A40000E480088401C0D49088011E00B480088B2
:101A5000C8280DD101200A4908600A49C1F8B0011F
:101A60000448B0F87A0140F020000249A1F87A0158
:101A700010BD00005C030020600000206400002016
:101A8000B00124420080214210B5002400F0B6FFCE
:101A9000044301F0FDF9044300F06CFF044300F03F
:101AA00017FC044334B10023042221460248006895
:101AB00007F038F810BD00001C00002010B50446E7
:101AC00004F0400000B30021642001F02DFC002050
:101AD000FD490860FD49C1F8B001FD48B0F87A0140
:101AE00020F02000FA49A1F87A010846B0F87A01FE
:101AF00020F00200A1F87A010846B0F8780140F021
:101B00000800A1F8780107E0F148B0F8780120F06A
:101B10000800EF49A1F8780104F4807040B1EC4866
:101B2000B0F8780140F02000E949A1F8780107E019
:101B3000E748B0F8780120F02000E549A1F87801E5
:101B400004F4007000B30021642001F0EDFB0020DC
:101B5000DD490860DD49C1F8B001DD48B0F87A011F
:101B600020F02000DA49A1F87A010846B0F87A019D
:101B700020F00200A1F87A010846B0F8780140F0A0
:101B80004000A1F8780107E0D148B0F8780120F0D2
:101B90004000CF49A1F8780104F4806040B1CC48FE
:101BA000B0F8780140F08000C949A1F8780107E059
:101BB000C748B0F8780120F08000C549A1F8780145
:101BC00004F4006000B30021642001F0ADFB0020AC
:101BD000C0490860C049C1F8B001BD48B0F87A01F9
:101BE00020F02000BA49A1F87A010846B0F87A013D
:101BF00020F00200A1F87A010846B0F8780140F41C
:101C00008070A1F8780107E0B148B0F8780120F4BD
:101C10008070AF49A1F8780104F4805040B1AC481D
:101C2000B0F8780140F40070A949A1F8780107E004
:101C3000A748B0F8780120F40070A549A1F8780110
:101C400004F0800040B1A248B0F8780140F01000E4
:101C50009F49A1F8780107E09D48B0F8780120F08D
:101C600010009B49A1F8780104F4005010B904F465
:101C70008040D0B100209749303908609349C1F8BD
:101C8000840104F4005040B10120924930390860C9
:101C900000208E49C1F8840107E000208D493039C9
:101CA000086001208949C1F8840104F01000D8B10E
:101CB0008A480078002803DD88480078102813DB64
:101CC0008748006840B1012082493039086000200F
:101CD0007E49C1F8840107E000207E493039086060
:101CE00001207A49C1F8840104F0200000287DD049
:101CF0007A48007810287AD17A480078012804D1EF
:101D00007948006801F0BEFE03E07848006801F001
:101D1000B9FE7748007800F0010010B10120754944
:101D200008607348007800F0020018B10120714982
:101D3000283108606E48007800F0040018B10120D6
:101D40006C492C3108606A48007800F0080018B12E
:101D500001206849243108606548007800F01000CF
:101D600018B101205849283908606148007800F00E
:101D7000200018B101205449243908605C480078DB
:101D800000F0400018B101204F4920390860584840
:101D9000007800F0800018B101205649091D086044
:101DA0005348008800F4807018B101204649083972
:101DB00008604F48008800F4007010B101204249CB
:101DC00008604B48008800F4806018B101203E494B
:101DD0000C3908604648008800F4006018B1012002
:101DE0004449083108600020414901E0DCE005E099
:101DF00008804148007839490870D5E037480078B4
:101E000000287BDD35480078102877DA35480078DF
:101E1000012804D13448006801F080FA03E0334817
:101E2000006801F07BFA2D480078334908701020D3
:101E30002A4908702F48006828B12D48008840F0D2
:101E400001002B4908802B482830006828B1284819
:101E5000008840F002002649088026482C3000689F
:101E600028B12348008840F0040021490880214817
:101E70002430006828B11E48008840F008001C4942
:101E8000088011482838006828B11948008840F0B7
:101E90001000174908800C482438006828B11448FD
:101EA000008840F020001249088007482038006868
:101EB00028B10F48008840F040000D4908800D48C7
:101EC000001D006808B31AE0B001244200802142DE
:101ED0005C030020B0812142000024424800002021
:101EE00038812342340000204000002044000020BC
:101EF0005200002090812242500000204EE02B48EA
:101F0000008840F08000294908802948006828B1ED
:101F10002648008840F4807024490880244808300E
:101F2000006828B12148008840F400701F490880EB
:101F30001F48001F006828B11C48008840F48060DA
:101F40001A4908801B48006828B11848008840F4E6
:101F500000601649088000201649083908601649B3
:101F6000C1F8B80113492431086012491C310860D6
:101F70000F4920390860091D0860091D08600D49D6
:101F8000091F08600A4908600949083108600849C2
:101F9000091F08600849C1F8980105E00748007862
:101FA00010B901200549087010BD00005200002042
:101FB000A801244298812242008022424800002049
:101FC0001FB501214FF4A07001F040FA012108462D
:101FD00001F03CFA0320ADF80C0048208DF80F000A
:101FE00003A9384800F092F84FF46070ADF80C0087
:101FF00003A9354800F08AF80021062000F066F8B1
:102000000120019000208DF8080008208DF80900BB
:1020100001208DF80A0001A8FFF780FC01210620AD
:1020200000F054F80220019001A8FFF777FC072187
:10203000042000F04BF88020019001A8FFF76EFC0F
:102040000821042000F042F84FF48070019001A8AC
:10205000FFF764FC0921042000F038F84FF4007009
:10206000019001A8FFF75AFC06208DF8000003201C
:102070008DF8010000208DF8020001208DF803008A
:10208000684601F0ADF807208DF8000003208DF8B8
:10209000010000208DF8020001208DF80300684641
:1020A00001F09EF817208DF8000003208DF8010044
:1020B00000208DF8020001208DF80300684601F031
:1020C0008FF81FBD002001400018014030B50022EC
:1020D0008B071C0F0F2303FA04F20B4B8C1053F8E1
:1020E00024309343084C8D1044F8253023468C103F
:1020F00053F824308C07240F00FA04F42343024CD5
:102100008D1044F8253030BD080001402DE9F04124
:10211000024600250026002000230024002791F815
:1021200003C00CF00F0591F803C00CF0100CBCF1CB
:10213000000F03D091F802C04CEA050591F800C0E9
:10214000BCF1000F31D0146800202BE04FF0010CDF
:102150000CFA00F3B1F800C00CEA03069E4220D14D
:1021600083004FF00F0C0CFA03F7BC4305FA03FC95
:102170004CEA040491F803C0BCF1280F06D14FF0DB
:10218000010C0CFA00FCC2F814C00AE091F803C07C
:10219000BCF1480F05D14FF0010C0CFA00FCC2F85D
:1021A00010C0401C0828D1D31460B1F800C0BCF1A5
:1021B000FF0F34DD546800202EE000F1080C4FF0D2
:1021C000010808FA0CF3B1F800C00CEA03069E42BD
:1021D00021D183004FF00F0C0CFA03F7BC4305FA32
:1021E00003FC4CEA040491F803C0BCF1280F05D1AC
:1021F00000F1080C08FA0CF8C2F8148091F803C03A
:10220000BCF1480F07D100F1080C4FF0010808FAA3
:102210000CF8C2F81080401C0828CED35460BDE8EA
:10222000F0810000F0B50A460023002400210025BB
:1022300000F00046B6F1004F02D11D4EF16901E0F9
:102240001B4E7168C0F3034583B200F44016B6F527
:10225000401F08D121F07061154E766826F0706637
:10226000134F7E6012E000F48016B6F5801F06D191
:10227000032606FA05F4A14341F0706106E0460D1D
:10228000360103FA06F6B14341F0706122B1460D02
:10229000360103FA06F6314300F00046B6F1004F6E
:1022A00002D1034EF16101E0014E7160F0BD00000A
:1022B000000001400246002093680B400BB1012052
:1022C00000E00020704741617047016170470000E5
:1022D000214908682149096841B9002131B11E49E5
:1022E000096841F400511C4A11600EE01B4909685D
:1022F00001290AD11849097801F0010129B11649CB
:10230000096821F40051144A11601449091D096833
:1023100041B9002131B11049096841F480410E4AA8
:1023200011600FE00D49091D096801290AD10A4908
:10233000097801F0010129B10749096821F48041B8
:10234000054A116004490968884202D002490868B8
:1023500000E0002070470000580000203881234230
:1023600070B534480068FEF708FA05463249FEF7B2
:1023700003F804463149FDF7FFFF3149C1F8540124
:1023800030480068FEF7F9F904462B49FDF7F4FFE1
:102390002B49C1F858012C480068FEF7EEF90446B5
:1023A0002549FDF7E9FF2649C1F85C012748006887
:1023B000FEF7E3F904462049FDF7DEFF2049C1F8A6
:1023C000600123480068FEF7D8F904461A49FDF772
:1023D000D3FF1B49C1F86401002016490860194960
:1023E0000860194908601A490860184908601448CB
:1023F00090F87A0100F01000D8B11149D1F86001CD
:102400001449FDF7EBFF0446134801682046FDF729
:102410005BFF114908600A49D1F864010D49FDF7D5
:10242000DDFF04460D4801682046FDF74DFF0B49CE
:10243000086070BDB000002038F8423D00007A44CA
:102440005C030020AC000020A8000020A0000020B9
:10245000A400002000007042380000203C00002052
:10246000014608797047000030B599B00546002450
:1024700030221F490DA8FDF7C3FE30221C49303120
:1024800001A8FDF7BDFE09E00DA850F8241019A021
:10249000FDF7E6FE00B103E0601CC4B20C2CF3DBD8
:1024A00000BF17A12846FDF7CFFE12A0C11D284688
:1024B000FDF7CAFE01A850F824102846FDF7C4FE17
:1024C0000CA0011D02222846FDF7EAFE022210A1FF
:1024D0002846FDF7E5FE0EA0C11C02222846FDF7A6
:1024E000DFFE0EA12846FDF7AFFE19B030BD00009B
:1024F000F4960008446563203132203230313900CF
:1025000054524D482D48525F56332E305F00000024
:1025100031363A30373A3437000000005F4C5A4ABF
:102520000000000000BFFEE770B504460D46012D17
:1025300008D1164A32F81410154A52F82400FFF751
:10254000C2FE07E0114A32F81410114A52F8240072
:10255000FFF7BBFE0F4850F82410012088470E4AB1
:1025600032F814100D4A52F82400FFF7AEFE094865
:1025700050F8241001208847074A32F81410074AFF
:1025800052F82400FFF79FFE70BD000088970008F6
:102590007C9700086C00002084970008749700085E
:1025A000F8B50446002648208DF80300244830F88A
:1025B0001400ADF8000003208DF80200214951F805
:1025C00024006946FFF7A2FD00252BE01E4A32F8E1
:1025D00014101E4A52F82400FFF777FE1C4850F8EA
:1025E000241001208847164A32F81410154A52F870
:1025F0002400FFF75FFE012801D1012700E000273A
:1026000047EA4600C6B2104A32F814100F4A52F890
:102610002400FFF758FE0E4850F824100120884788
:10262000681CC5B2082DD1DB10208DF803000549C8
:1026300051F824006946FFF769FD3046F8BD0000F7
:10264000889700087C970008849700087497000812
:102650006C000020F8B5044648208DF803000320E4
:102660008DF802001D4830F81400ADF800001C4938
:1026700051F824006946FFF749FD1A4A32F8141050
:10268000194A52F82400FFF720FE4FF496760DE029
:10269000124A32F81410124A52F82400FFF70AFEC8
:1026A000012801D1002501E0012503E0301EA6F13B
:1026B0000106EDD100BF0B4A32F814100A4A52F855
:1026C0002400FFF700FE10208DF80300044951F8A4
:1026D00024006946FFF71AFD2846F8BD88970008D0
:1026E0007C970008849700087497000810B504468A
:1026F0001A4A32F814101A4A52F82400FFF7E5FD7E
:10270000184850F8241001208847174A32F814104E
:10271000164A52F82400FFF7D8FD124850F824104A
:10272000012088470D4A32F814100D4A52F824004F
:10273000FFF7C9FD0B4850F82410012088470A4ACA
:1027400032F81410094A52F82400FFF7BCFD05487E
:1027500050F824100120884710BD00008897000819
:102760007C9700086C00002084970008749700088C
:1027700010B50446174A32F81410174A52F82400CC
:10278000FFF7A1FD154850F8241001208847144A8E
:1027900032F81410134A52F82400FFF796FD0F4840
:1027A00050F82410012088470A4A32F814100A4AC7
:1027B00052F82400FFF789FD084850F82410012042
:1027C0008847074A32F81410064A52F82400FFF7E7
:1027D0007AFD10BD889700087C9700086C000020E7
:1027E000849700087497000870B504460D460026CB
:1027F00034E005F0800040B11B4A32F814101B4A47
:1028000052F82400FFF761FD07E0174A32F8141070
:10281000164A52F82400FFF756FD6806050E1448C4
:1028200050F8241001208847124A32F81410124A36
:1028300052F82400FFF749FD0D4850F824100220FB
:1028400088470C4A32F814100B4A52F82400FFF75C
:102850003AFD074850F82410012088473046711C83
:10286000CEB20828C5DB70BD889700087C970008A9
:102870006C000020849700087497000821B102883A
:1028800042F40072028004E002884FF6FF531A40BF
:10289000028070470CB5024600200023019300938C
:1028A00000920B0F019321F07F41019B1BB1009B14
:1028B0001433009303E0090C009B18330093009B32
:1028C0001B680B400BB1012000E000200CBD002173
:1028D00007E0002201E0531C9AB2052AFBDB4B1CE7
:1028E00099B28142F5DB7047002107E0002201E048
:1028F000531C9AB2142AFBDB4B1C99B28142F5DBC4
:10290000704700004CF6CC40014908607047000059
:102910000030004010B500F013F810BD70B505464A
:102920000C4645F2555000F01FF8284600F010F80C
:10293000204600F013F800F003F8FFF7E3FF70BD46
:102940004AF6AA20014908607047000000300040A4
:10295000014948607047000000300040014988602C
:1029600070470000003000400149086070470000D7
:102970000030004000200649096809B940F0100005
:102980000349091F096809B940F020007047000099
:102990001801234208B50121402000F057FD6020B6
:1029A000ADF8000048208DF8030003208DF80200E8
:1029B00069460248FFF7AAFB08BD00000018014065
:1029C0000146CA1701EB92729210A1EB820292B9F2
:1029D000642091FBF0F200FB121050B94FF4C87064
:1029E00091FBF0F200FB121008B9012070470020A3
:1029F000FCE70120FAE70020F8E7000010B51448D2
:102A0000006850B11248001D006830B1104808300D
:102A1000006810B10F480068C0B90A2004F064FFD4
:102A20000B48006808B9022010BD0948001D006865
:102A300008B90120F8E706480830006808B90820FE
:102A4000F2E70448006808B90420EDE70020EBE74E
:102A50001C0122422001214210B5044604F00F005F
:102A6000012806D002287DD004287CD008287BD1FC
:102A7000ADE0B6480078102877D1B5480078012835
:102A800004D1B448006800F0FDFF03E0B2480068DC
:102A900000F0F8FFB148007800F0010010B101200B
:102AA000AF490860AD48007800F0020018B101207D
:102AB000AB4928310860A948007800F0040018B13B
:102AC0000120A7492C310860A448007800F00800D4
:102AD00018B10120A24924310860A048007800F014
:102AE000100010B101209F4908609C48007800F058
:102AF000200018B101209B49091D08609748007803
:102B000000F0400018B10120964908310860934850
:102B1000007800F0800018B101209149091D08607B
:102B20008E48008800F4807018B101208D49203152
:102B300008608A48008800F4007018B101208949B3
:102B4000283108608548008800F4806018B10120B1
:102B500084491C3108608148008800F4006040B15D
:102B6000012003E014E02EE0E7E00AE07C490831B0
:102B700008600020794908807B4800787349087014
:102B800005E07248007810B9012070490870D5E05E
:102B90006E480078002803DD6C480078102811DBAF
:102BA0007248006838B101207149086000207149FD
:102BB000C1F8840106E000206D49086001206D49DC
:102BC000C1F88401BAE0142060490870B6E05F489B
:102BD000007800287EDD5D48007810287ADA5C48AD
:102BE0000078012804D15B48006800F097FB03E0FF
:102BF0005948006800F092FB544800785A49087020
:102C00001020524908705648006828B1534800887F
:102C100040F001005149088051482830006828B12F
:102C20004E48008840F002004C4908804C482C3047
:102C3000006828B14948008840F0040047490880EE
:102C400047482430006828B14448008840F0080014
:102C5000424908804348006828B14048008840F055
:102C600010003E4908803F48001D006828B13B48DD
:102C7000008840F02000394908803A480830006850
:102C800028B13648008840F0400034490880344874
:102C9000001D006828B13148008840F080002F49AD
:102CA000088030482030006828B12C48008840F463
:102CB00080702A4908802B482830006828B12748AE
:102CC000008840F400702549088026481C300068C0
:102CD00038B100E030E02148008840F480601F49AE
:102CE00008801F480830006828B11C48008840F45C
:102CF00000601A4908800020194908601E49C1F87F
:102D0000B80117492C31086015492431086015496C
:102D10000860091D0860091D08601149091D086047
:102D20001049203108600F49283108600D491C31D5
:102D300008601149C1F8980100E010BD00BF0121F1
:102D40000E48006800F08CFF00BFF6E74800002046
:102D500034000020400000204400002052000020E9
:102D60009081224288012442500000203881234271
:102D70008081214200802142008022424C000020BC
:102D800008B50121142000F061FB4FF48070ADF80C
:102D9000000048208DF8030003208DF802006946EA
:102DA0000548FFF7B3F94FF46070ADF800006946CD
:102DB0000248FFF7ABF908BD0008014000100140D0
:102DC00008B501214FF4847000F040FB4FF4F0701F
:102DD000ADF8000010208DF8030003208DF80200EC
:102DE00069460B48FFF792F94FF4F0710848FFF776
:102DF0006AFA4FF44050ADF8000069460548FFF705
:102E000085F94FF440510348FFF75DFA08BD000013
:102E100000200140000C01401A480078002807DD1E
:102E200018480078102803DA01201749086002E0EA
:102E300000201549086013480078102804D10120AB
:102E400011490C39086003E000200F490C39086073
:102E50000C48007820B901200B490839086003E0CC
:102E600000200949083908600848006820B101209D
:102E70000549091F086003E000200349091F086095
:102E80007047000048000020A00124423C812342FA
:102E900010B5A1480468A148006801280BD19E48DC
:102EA000007800F0400030B99B48006840F04000D6
:102EB000994908600DE09948006850B99648007833
:102EC00000F0400028B19448006820F0400092498A
:102ED00008609348006801280BD18F48007800F003
:102EE000800030B98C48006840F080008A49086052
:102EF0000DE08B48006850B98748007800F08000EA
:102F000028B18548006820F0800083490860854822
:102F1000006801280BD18048008800F4807030B927
:102F20007D48006840F480707B4908600DE07D4872
:102F3000006850B97848008800F4807028B176485D
:102F4000006820F48070744908607648001F0068AB
:102F500001280BD17048008800F4007030B96E4829
:102F6000006840F400706C4908600EE06D48001F76
:102F7000006850B96848008800F4007028B16648BD
:102F8000006820F400706449086067480068012800
:102F90000BD16148008800F4806030B95E48006859
:102FA00040F480605C4908600DE05F48006850B9FB
:102FB0005948008800F4806028B15748006820F420
:102FC0008060554908605748001D006801280BD1F2
:102FD0005148008800F4006030B94F48006840F460
:102FE00000604D4908600EE04E48001D006850B971
:102FF0004948008800F4006028B14748006820F480
:103000000060454908604548001D006801280BD153
:103010004148008800F4805030B93F48006840F4CF
:1030200080503D4908600EE03C48001D006850B9E2
:103030003948008800F4805028B13748006820F4EF
:103040008050354908603748001F0068012820D1AA
:103050000021642000F068F90020344908603449F8
:10306000C1F8B0013348B0F87A0120F020003149AE
:10307000A1F87A010846B0F87A0120F00200A1F820
:103080007A010846B0F8780140F04000A1F87801D4
:1030900007E02848B0F8780120F040002549A1F861
:1030A00078012048001D0068012820D100216420FB
:1030B00000F03AF90020204908602049C1F8B00129
:1030C0001C48B0F87A0120F020001A49A1F87A01D2
:1030D0000846B0F87A0120F00200A1F87A0108460B
:1030E000B0F8780140F48070A1F8780107E0114849
:1030F000B0F8780120F480700E49A1F878010648F4
:103100000068844204D00448006840F0804400E035
:103110000024204610BD00005400002030812342CE
:10312000080123421801214210012242B001244229
:10313000008021425C030020B08121420000244233
:1031400008B50121D42000F081F9E020ADF800009D
:1031500048208DF8030003208DF8020069460D48D1
:10316000FEF7D4FF1020ADF8000069460A48FEF7CC
:10317000CDFF4FF44050ADF8000069460748FEF718
:10318000C5FF0420ADF8000069460548FEF7BEFF04
:1031900008BD00000008014000100140001C014073
:1031A0000018014008B50121082000F04FF9C020A7
:1031B000ADF8000010208DF8030003208DF8020008
:1031C00069460448FEF7A2FFC0210248FFF77DF8D8
:1031D00008BD0000000C014000BFFEE77047000082
:1031E00070B5002100230F22C47804B3154C246865
:1031F00004F4E064C4F5E064210AC1F10403CA40A8
:10320000447804FA03F184781440214309010E4CF8
:103210000678A155047804F01F050124AC40057818
:103220006D11AD0005F1E025C5F8004109E0047815
:1032300004F01F050124AC40044D0678761145F8D2
:10324000264070BD0CED00E000E400E080E100E00D
:1032500002490143024A1160704700000000FA056C
:103260000CED00E0014908627047000000000E42CA
:103270002DE9F04106460D4617460024A04672B6D9
:1032800000BF4FF000080020FFF730FAA021002017
:10329000FFF7AAFA0020FFF7DDF910B94FF0010897
:1032A0000FE029120020FFF79FFA0020FFF7D2F964
:1032B00010B94FF0010804E0E9B20020FFF794FADA
:1032C00000BFB8F1010F04D12046611C8CB2142854
:1032D000D7DB142C00DB15E00020FFF7BBF910B999
:1032E0004FF001080EE0002409E02046621C94B271
:1032F000315C0020FFF778FA0020FFF7ABF9BC4201
:10330000F3DB00BF0020FFF733FA62B6B8F1000F1D
:1033100002D00020BDE8F0810120FBE701790129FE
:1033200001D10021017170472DE9F04105460E469B
:103330004CF25030B0FBF5F4012E13D101200E49B0
:10334000086021460D4801F022F9274604EBD770AA
:10335000C0F34F01094801F01CF90121074801F0B1
:103360008CF806E00020044908600021034801F0C1
:1033700084F8BDE8F08100008481224200340140DD
:1033800008B501214FF4907000F060F81C20ADF8F2
:10339000000010208DF8030003208DF8020069461C
:1033A0000A48FEF7B3FE1C210848FEF78CFF4EF2D8
:1033B0001000ADF8000069460548FEF7A7FE4EF282
:1033C00010010348FEF77FFF08BD00000020014008
:1033D0000014014001460020034A506820F4404098
:1033E00008435060704700000010024029B1064AAF
:1033F00052690243044B5A6104E0034A5269824312
:10340000014B5A61704700000010024029B1064A82
:10341000D2690243044BDA6104E0034AD269824371
:10342000014BDA61704700000010024029B1064AE2
:1034300012690243044B1A6104E0034A1269824391
:10344000014B1A61704700000010024029B1064A82
:1034500092690243044B9A6104E0034A92698243F1
:10346000014B9A61704700000010024029B1064AE2
:10347000D2680243044BDA6004E0034AD268824314
:10348000014BDA60704700000010024001490860FB
:10349000704700004004424230B500210022002461
:1034A00000232D4D6D6805F00C0121B1042905D0D4
:1034B000082923D105E0294D056022E0274D05604C
:1034C0001FE0254D6D6805F47012234D6D6805F4FD
:1034D0008034022505EB92421CB9214D554305600D
:1034E0000BE01D4D6D6805F400351DB11C4D5543B5
:1034F000056002E0194D5543056002E0174D056077
:1035000000BF00BF144D6D6805F0F0010909154DAD
:103510006B5C0568DD4045600F4D6D6805F4E0614A
:10352000090A104D6B5C4568DD4085600A4D6D6889
:1035300005F46051C90A0B4D6B5C4568DD40C56000
:10354000054D6D6805F44041890B074D6B5CC568FE
:10355000B5FBF3F5056130BD0010024000127A00A2
:1035600000093D00850000209500002010B50146AF
:103570000022002300204A11012A02D1094C2368AD
:1035800006E0022A02D1074C236A01E0054C636A77
:1035900001F01F02012494401C400CB1012000E006
:1035A000002010BD0010024000210B4A11700A4A91
:1035B000203A82F82010012802D0042808D103E024
:1035C0000121054A117004E00521034A117000E051
:1035D00000BF00BF70470000201002400149086092
:1035E000704700003C0442420249096A0143014A13
:1035F000116270470010024008B501210520FFF755
:1036000025FF01210848FEF70DFE4FF40040ADF8FC
:10361000000003208DF8020010208DF80300694699
:103620000248FEF773FD08BD0002300000080140AB
:103630000348008840F010000149088070470000EE
:1036400004280040034800884FF6EF710840014904
:1036500008807047042800402DE9F0410546002706
:103660000024002600F072F807463548B7FBF0F456
:1036700034480088A04239D032490C8040F2B276FA
:1036800010E03046FFF79CF940B1B4F5B77F02D3A4
:10369000A4F5B77404E0701C86B206E0A4F26D14C1
:1036A000701C86B2B4F5B67FEBD800BF2E80002622
:1036B00015E02888FFF784F930B1012E04D11D2CC4
:1036C00001D31D3C09E00CE01F48805DA04203D8F7
:1036D0001D48805D241A00E003E0701C86B21C2C9B
:1036E000E7D200BF701CA870601CE8701448B7FBDC
:1036F000F0F100FB11744FF46160B4FBF0F028713D
:103700004FF46160B4FBF0F100FB11403C21B0FBD1
:10371000F1F068714FF46160B4FBF0F100FB11400F
:103720003C21B0FBF1F201FB1200A871EA78A97804
:10373000288800F015F8E8710020BDE8F08100004D
:103740008051010066000020949200080021034887
:103750000188001F008841EA004070471C28004093
:10376000F0B503460C461546642093FBF0F0C6B254
:10377000642093FBF0F700FB1730C1B2132E02DD7B
:1037800001F16400C1B20846CF1701EB977701EB56
:10379000A707BAB2072092FBF0F700FB172082B20E
:1037A0005719601EDFF82CC01CF80000384482B2A4
:1037B000CF1701EB9777BF10A1EB87071FB9032C39
:1037C00001DA501E82B2072092FBF0F700FB1720AF
:1037D000C0B2F0BD8892000829B1064A128802439F
:1037E000044B1A8004E0034A12888243014B1A807A
:1037F00070470000002800401CB5002401214FF054
:10380000C050FFF703FE0120FFF72CFD0420FDF759
:10381000A5FC45F25001884241D0FDF797FC0120FC
:10382000FFF7C2FE04E0601C84B2142001F0CEFF5A
:103830004120FFF79BFE10B9B4F57A7FF3DBB4F5B6
:103840007A7F01DB01201CBD4FF48070FFF7CCFEB6
:103850000120FFF7C3FE00F0ABF800F0B3F8012140
:103860000846FFF7B9FF00F0A3F8FFF7E1FE47F6BF
:10387000FF7000F08DF800F09BF80C2000900346DC
:1038800001220A21019040F2E37000F00FF8FFF7E7
:10389000D9FE45F250010420FDF76EFC03E000F074
:1038A00091F800F085F80020CDE700002DE9F05FE9
:1038B00006460F4690469946DDE90AAB002440F2E1
:1038C000B270864203DB40F63300864202DD0120FF
:1038D000BDE8F09F40F2B2750AE02846FFF770F8A5
:1038E00010B12048044401E01F480444681C85B21C
:1038F000B542F2DB781EC7B2002510E01B48405DE0
:1039000040F2A321484304EBC0143046FFF758F8B7
:1039100018B1012D01D116480444681C85B2BD427E
:10392000ECDBA8F1010040F2A321484304EBC014F2
:10393000C9EB4910C0EB092004EB0014CAEB0A10D4
:1039400004EB80045C4401214FF0C050FFF75EFDA2
:103950000120FFF787FC204600F00CF800F028F863
:103960000020B5E70085E2018033E1019492000870
:103970008051010000B50246FFF75AFE100C0349C2
:103980000880091D0A80FFF75DFE00BD1828004071
:1039900000B50246FFF74CFEC2F30340034908801E
:1039A000091D0A80FFF74EFE00BD000008280040F8
:1039B00000BF0348008800F020000028F9D07047BD
:1039C00004280040074800884FF6F7710840054971
:1039D000088000BF0348008800F008000028F9D0E4
:1039E000704700000428004008B501214FF4907092
:1039F000FFF72CFD4FF4B050ADF8000010208DF80B
:103A0000030003208DF8020069460A48FEF77EFB9A
:103A10004FF4B0510748FEF756FCE020ADF8000027
:103A200069460548FEF772FBE0210348FEF74BFCB0
:103A300008BD000000200140001401401CB505A194
:103A400003C9CDE9000108226946032001F0A0F96D
:103A50001CBD0000010300040001C5CB1FB505A378
:103A60000FCB8DE80F000E226946012001F090F97E
:103A70001FBD0000FF010000020000030000040061
:103A800000EE0000017909B901210171704721B1EF
:103A9000028842F04002028004E002884FF6BF73C1
:103AA0001A4002807047000010B504461148844255
:103AB00008D101218014FFF7D9FC0021A014FFF7E1
:103AC000D5FC16E00C48844208D101210014FFF710
:103AD000ADFC00212014FFF7A9FC0AE0074884424E
:103AE00007D10121C013FFF7A1FC0021E013FFF76C
:103AF0009DFC10BD0030014000380040003C0040FB
:103B000010B50022028802F441520B884C882343EE
:103B10008C882343CC8823430C8923434C8923433B
:103B20008C892343CC8923431A430280838B4FF231
:103B3000FF74234083830B8A038210BD70B5044653
:103B40000D460748201A203006B2202E00DA70BD3C
:103B5000B1B22A462046FDF742FE00BFF7E700005B
:103B60005C03002010B500F001F810BD0CB500207A
:103B7000019000903348006840F48030314908607B
:103B800000BF3048006800F4003000900198401CED
:103B90000190009818B90198B0F5A06FF1D12948AB
:103BA000006800F4003010B10120009001E0002016
:103BB00000900098012843D12348006840F010008D
:103BC000214908600846006820F0030008600846A4
:103BD000006840F0020008601A48406819494860CF
:103BE0000846406848600846406840F48060486085
:103BF0000846406820F47C1048600846406840F45D
:103C0000E81048600846006840F08070086000BF17
:103C10000C48006800F000700028F9D0094840689E
:103C200020F00300074948600846406840F0020061
:103C3000486000BF0348406800F00C000828F9D134
:103C40000CBD0000001002400020024000B9704787
:103C500001EB8102520002600122027100BFF6E70F
:103C600000B9704701600122027100BFF9E700004E
:103C700010B50024FE48007815287DD2DFE800F05A
:103C80007C0B384C8BB3DFFDFCFBFAF9F8F7F6F54B
:103C90007C7C7C7CF400F74890F87A0100F02000EE
:103CA00018B11420F249087021E006E0FDF774FA1B
:103CB000F1490860642003F017FEEF48006820B95E
:103CC0002046611CCCB20A28F0DBEB48006818B132
:103CD0000220E749087002E01420E5490870E54831
:103CE000B0F8780120F00400E249A1F878017BE205
:103CF0000120E24908600521DF480068FFF7A6FFC0
:103D0000DC48B0F87A0140F04000DA49A1F87A01C5
:103D10000320D749087067E2D7480068FEF7A0FB88
:103D2000022803D0D6480078012833D10020D34997
:103D30000860D049086A0021FCF754FD02D2012036
:103D4000D0490860CB49086A0021FCF74BFD03D23B
:103D50000120CA491C3108600020CB490860CB49CA
:103D600008600A21C4480068FFF770FFC148B0F836
:103D70007A0140F0100000E035E2BE49A1F87A0176
:103D80000846B0F87A0120F04000A1F87A0104203A
:103D9000B749087028E2B8480068FEF761FB0228BE
:103DA00020D10020B7490860B949C1F8A801012015
:103DB000B449283108600A21AF480068FFF746FF80
:103DC000AC48B0F87A0120F01000AA49A1F87A01B5
:103DD0000846B0F87A0140F00800A1F87A01052001
:103DE000A349087000E2A4480068FEF739FB0228E6
:103DF00024D10020A349283108600120A449C1F83A
:103E0000A401A049091F08609E49203108600A21C9
:103E100099480068FFF71AFF9648B0F87A0120F039
:103E200008009449A1F87A010846B0F87A0140F4F4
:103E30000070A1F87A0106208D49087000BF8E48F5
:103E40000068FEF70DFB022839D100208D49091FBB
:103E500008608F49C1F8A40101208A49091D086042
:103E600088492031086009E094E172E14BE135E1D5
:103E70001FE1D3E09FE076E04CE021E07F49091F9D
:103E800008600A217C480068FFF7E0FE7948B0F836
:103E90007A0120F400707749A1F87A010846B0F859
:103EA0007A0140F48050A1F87A010846B0F87A010E
:103EB00040F48060A1F87A0107206D49087093E111
:103EC0006D480068FEF7CCFA022822D100206D4927
:103ED000091D08606F49C1F8B4016D49C1F8880136
:103EE0006448B0F87A0120F480506249A1F87A0160
:103EF0000846B0F87A0120F48060A1F87A016048A1
:103F0000007818B908205A49087002E00D20584975
:103F1000087069E15749086A0021FCF763FC02D286
:103F20000120584908605349086A0021FCF75AFCEF
:103F300003D2012051491C31086000205249086019
:103F4000524908600A214C480068FFF77FFE494843
:103F5000B0F87A0140F010004649A1F87A01092032
:103F60004349087040E144480068FEF779FA0228A6
:103F700020D10020434908604549C1F8A80101202B
:103F80004049243108600A213B480068FFF75EFE83
:103F90003848B0F87A0120F010003649A1F87A01CB
:103FA0000846B0F87A0140F00400A1F87A010A202E
:103FB0002F49087018E130480068FEF751FA0228CE
:103FC0002BD100202F492431086001203049C1F84D
:103FD000A4012C49091F08602A49203108600A21E0
:103FE00025480068FFF732FE2248B0F87A0120F039
:103FF00004002049A1F87A010846B0F87A0140F49B
:104000000070A1F87A010B20194908701948D0F8FE
:104010007401401C1749C1F87401E5E016480068B6
:10402000FEF71EFA022843D100201649091F086036
:104030001749C1F8A40101201249091D086011495E
:10404000203108600D49091F08600A210A480068EC
:10405000FFF7FCFD0748B0F87A0120F4007005492D
:10406000A1F87A010846B0F87A0140F4805013E0D4
:10407000480000205C030020400000208C01244206
:104080005C00002094812242380000203C00002087
:104090000000244200802242A1F87A010846B0F8CC
:1040A0007A0140F48060A1F87A010C204F49087031
:1040B0009AE04F480068FEF7D3F902280DD100209E
:1040C0004C4908604C49C1F8B4014C4908600120D2
:1040D0004B49087003204549087085E00120474995
:1040E00008310860032142480068FFF7AFFD4548EA
:1040F000B0F87A0140F400604249A1F87A010E203C
:104100003A49087070E03A480068FEF7A9F90228B9
:104110001ED1002039490831086001203A49C1F810
:104120008801032132480068FFF790FD3548B0F858
:104130007A0120F400603349A1F87A010846B0F80A
:104140007A0140F48060A1F87A010F2027490870B5
:104150004AE027480068FEF783F9022819D10020B9
:10416000264908602748B0F87A0120F48060254984
:10417000A1F87A010020224908701C4908702148E2
:10418000C068401C1F49C86004211E480C30FFF75E
:10419000D5FC29E000201749083908601649C1F804
:1041A000B80114492431086012491C3108601349D0
:1041B0000860091D0860091D08600E49091F086094
:1041C0000E49203108600D49283108600B491C3127
:1041D0000860084908600A4908700A49A1F87A018C
:1041E0000249087000E000BF00BF10BD4800002079
:1041F000400000209881224200802242880124420F
:104200005C0000205C03002000002442042808D148
:104210004FF0E021096941F004014FF0E022116103
:1042200007E04FF0E021096921F004014FF0E0229E
:104230001161704710B504F003FD012801D004F0AE
:10424000DFF810BD10B5642000F066F8102003F010
:1042500049F80749086000200968086004490968AE
:10426000087103490968886001490968C86010BD80
:104270006800002010B51348006840F001001149A3
:10428000086008464068104908400E4948600846E2
:1042900000680E4908400B4908600846006820F491
:1042A000802008600846406820F4FE0048604FF413
:1042B0001F008860FFF756FC4FF00060044908605B
:1042C00010BD0000001002400000FFF8FFFFF6FEE6
:1042D00008ED00E010B50E48046801210D4800F01B
:1042E000E7F898B101210B4800F0C4F80BE0E4684E
:1042F0002079012807D1206818B12068401E20606D
:1043000001E002202071E0680028F0D110BD00001B
:1043100068000020000400401FB50446012102206F
:10432000FFF774F8ADF8084041F61F40ADF80400FF
:104330000020ADF80A00ADF8060001A9134800F00E
:104340002DF90121114800F089F84FF4C060FEF703
:104350007FFF1D208DF8000004208DF80100002053
:104360008DF8020001208DF803006846FEF738FF43
:104370000121064800F07EF801221146034800F0B2
:10438000A8F80121014800F078F81FBD00040040A2
:1043900010B50121054800F08BF828B10121034830
:1043A00000F068F802F086FF10BD00000010004029
:1043B00030B589B005460C4601214803FFF746F8A1
:1043C00001211120FFF742F84020ADF8200018200D
:1043D0008DF8230003208DF8220008A91D48FDF761
:1043E00095FEADF81840ADF814500020ADF81A0055
:1043F000ADF8160005A9184800F0D0F86020ADF817
:1044000004000120ADF806000020ADF80C00ADF866
:104410000E000420ADF808000020ADF81000ADF843
:104420001200204604EBD071C1F34F01ADF80A1021
:1044300001A9094800F056F80121074800F029F8C1
:104440000821054800F09AF80121034800F015F80A
:1044500009B030BD001001400034014021B1028894
:1044600042F08002028004E002884FF67F731A4017
:1044700002807047CA430282704721B1028842F02D
:104480000102028004E002884FF6FE731A400280A7
:10449000704731B1B0F8442042F40042A0F8442003
:1044A00005E0B0F84420C2F30E02A0F844207047A3
:1044B00030B50246002000230024158A05EA0103D6
:1044C000958905EA010413B10CB1012000E0002038
:1044D00030BD1AB183890B43838102E083898B430A
:1044E0008381704770B5002400220023058C4FF6AD
:1044F000FE7635400584028C8388048B4FF68F75D9
:104500002C40B51E2C400D882C43751E2A400D8969
:104510002A434D882A43144DA8420BD0134DA8427C
:1045200008D0134DA84205D0124DA84202D0124D1A
:10453000A84213D14FF6F7752A404D892A434FF60A
:10454000FB752A408D882A434FF6FF652B404FF6B6
:10455000FF552B408D892B43CD892B4383800483CA
:10456000CD888586028470BD002C01400034014056
:104570000040014000440140004801400A4600213B
:10458000018B4FF6F7731940114301837047818502
:10459000704781867047818470470000002202883E
:1045A0001D4B98420ED01D4B98420BD0B0F1804F5E
:1045B00008D01B4B984205D01A4B984202D01A4B98
:1045C000984204D14FF68F731A404B881A43174B09
:1045D000984207D0164B984204D04FF6FF431A403A
:1045E000CB881A4302808B8883850B8803850A4B0E
:1045F00098420BD0094B984208D00E4B984205D0F8
:104600000D4B984202D00D4B984201D10B7A038694
:104610000123838270470000002C014000340140D8
:104620000004004000080040000C00400010004062
:104630000014004000400140004401400048014097
:1046400000B587B001210920FEF700FF0121C80352
:10465000FEF7DCFE01212448FDF7E4FD4FF4407035
:10466000ADF8180010208DF81B0003208DF81A00FB
:1046700006A91E48FDF74AFD2820ADF818001820AD
:104680008DF81B0003208DF81A0006A91748FDF7C6
:104690003DFD1748FFF708FA0020ADF804004FF47D
:1046A0008270ADF806004FF40060ADF808000020FD
:1046B000ADF80A000120ADF80C004002ADF80E0084
:1046C0002820ADF810000020ADF812000720ADF84A
:1046D000140001A90648FFF713FA01210448FFF767
:1046E000D6F907B000BD000000023000000C014008
:1046F000003C004008B516E005236A46991F0020DB
:1047000004F068FB012805D10098FEF7A5F9009890
:10471000FDF7D4F904480078012801D1FDF76AF9C2
:104720000A2003F0E1F8E7E73400002004E0FEF798
:10473000F1F8C82003F0D8F8F9E704E0FDF7A4F990
:104740000A2003F0D1F8F9E704E0642003F0CCF884
:10475000FEF762FBF9E704E001F052FC142003F0DD
:10476000C3F8F9E7FFF748F818B10648006803F006
:10477000F9F805E00448FEF76FFFC82003F0B4F82D
:10478000F8E70000180000208403002001200749FA
:1047900008700AE00648007810B900F087FC01E0D4
:1047A000FFF766FA142003F09FF8F3E748000020B3
:1047B000340000207CB5054602F018FFFCF768FFC6
:1047C0005848022100234022CDE9001056A1594843
:1047D00004F078F95848032100234022CDE9001065
:1047E00056A1594804F06EF958480421002380224C
:1047F000CDE9001056A15C4804F064F95B4804213F
:1048000000234022CDE9001059A15D4804F05AF977
:104810005C48042100234022CDE9001054A15A48ED
:1048200004F050F95948042100234022CDE900103A
:1048300057A15A4804F046F9594804210023402260
:10484000CDE9001057A15C4804F03CF95B48042115
:1048500000234022CDE9001059A15D4804F032F94F
:104860005C4801231A464FF47A7100905AA004F074
:1048700063FC5C4908605C4801231A464FF4FA71F6
:1048800000905AA004F058FC5C4908605C48012381
:104890001A46C82100905BA004F04EFC5E490860F7
:1048A0005E4801231A464FF4967100905CA004F014
:1048B00043FC5F49086004F0D3F904460020034636
:1048C0002246012100904748006804F089FC04F06A
:1048D000C7F90446002003462246012100904748BC
:1048E000006804F07DFC04F0BBF904460020034698
:1048F0002246012100904848006804F071FC04F051
:10490000AFF90446002003462246012100904848A2
:10491000006804F065FC4748006803F023F802F0E3
:10492000ABFE7CBD040000205461736B5F4C4544BA
:104930000000000049470008080000205461736B24
:104940005F495744470000002D4700080C00002035
:104950005461736B5F554152545F436F6D6D756E5B
:1049600069636174696F6E00394A000810000020A5
:104970005461736B5F4B6579436865636B0000003E
:104980003B4700081400002057470008180000208B
:104990005461736B5F525443000000006547000888
:1049A0001C0000205461736B5F4576656E7448612E
:1049B0006E646C6500000000F546000820000020D1
:1049C0005461736B5F537973457863757465000048
:1049D0008D47000861230008466C6F7754696D6548
:1049E0007200000024000020A914000844617461D2
:1049F00055706461746554696D657200280000200B
:104A0000AB50000856616C7665436F6E74726F6CC4
:104A100054696D65720000002C000020554A0008A2
:104A200054696D654C6F6754696D657200000000D4
:104A300030000020000000200BE0012000F066F9AB
:104A4000022000F063F9032000F060F90A2002F070
:104A50004BFFF2E77047000010B50448028E00F1EA
:104A60003201002000F094F910BD00005C0300202A
:104A70002DE9F041214890F86600FF283BD11F48FE
:104A8000B0F86410491E6630405CEE2833D14FF018
:104A90007E541A4890F86F50014691F8682091F8BA
:104AA000691002EB0120FBF75FFE1449C1F85001C9
:104AB00008E00A2095FBF0F0C5B211492046FBF74B
:104AC0005BFC0446002DF4D10C4991F86F00FBF714
:104AD00054FE80462146FBF74FFC0646074991F8F5
:104AE0006E00FBF74AFE07463146FBF7EDFB034934
:104AF000C1F83C0100BFBDE8F08100005C0300206C
:104B0000CDCCCC3D10B50448B0F8982000F19A0106
:104B1000022000F03DF910BD5C03002010B50448F0
:104B2000B0F8CC2000F1CE01032000F031F910BD27
:104B30005C03002010B540F225510F4800F0EEF95B
:104B4000C0B10E48B0F8CC00312810DA0A4800F0A5
:104B5000A1FAC1B20948B0F8CC20B0F8CC00401C92
:104B600083B20648A0F8CC30CE30815402E002482F
:104B700000F090FA10BD0000004C00405C030020E3
:104B80007047000010B540F225510F4800F0C6F9FB
:104B9000C8B10E48B0F80001312811DA0A4800F017
:104BA00079FAC1B20948B0F80021B0F80001401C00
:104BB00083B20648A0F8003100F58170815402E00C
:104BC000014800F067FA10BD005000405C0300206F
:104BD00030B587B004460D4684B9414951F82410D8
:104BE000404A52F8242011433F4A52F824201143EE
:104BF00041F001000121FEF729FC11E0384951F88C
:104C000024000121FEF702FC364951F82410364AEF
:104C100052F82420114341F001000121FEF716FC57
:104C2000022C03D101213148FDF7FCFA304830F85D
:104C30001400ADF8180003208DF81A0018208DF824
:104C40001B002C4951F8240006A9FDF75FFA2A48F9
:104C500030F81400ADF8180004208DF81B00274927
:104C600051F8240006A9FDF751FA2548005D8DF89A
:104C7000040001208DF8050000208DF806000120B9
:104C80008DF8070001A8FEF7ABFA02950020ADF8F9
:104C90000C00ADF80E00ADF81000ADF814000C20BB
:104CA000ADF81200174951F8240002A900F086F966
:104CB000144951F82400012240F2255100F058F91E
:104CC000104951F82400012100F00FF9032C04D100
:104CD000FEF792FC00200C49086007B030BD0000D0
:104CE000B4920008C8920008DC920008300014005A
:104CF00018930008F092000822930008049300081B
:104D00002C930008A0920008BC01214270B5044613
:104D100004EB840000EBC4011C4830F82100A0B370
:104D200004EB840000EBC401184830F821500A203D
:104D300002F0DAFD04EB840000EBC401134830F804
:104D40002100A84221D1052C13D2DFE804F003068C
:104D5000090C0F00FFF780FE0CE0FFF789FE09E069
:104D6000FFF7D0FE06E0FFF7D9FE03E0FFF708FFEC
:104D700000E000BF00BF04EB840101EBC402034963
:104D800001EB82003421FBF754FA70BD8C03002044
:104D900070B504460D461646032C02D10120134976
:104DA000086000BF124951F82400402100F0A9F822
:104DB0000028F7D00FE015F8011B0D4A52F8240027
:104DC00000F06DF900BF0A4951F82400402100F0BD
:104DD00098F80028F7D0301EA6F101018EB2EAD172
:104DE000032C01D10149086070BD0000BC012142C3
:104DF000A092000810B540F225510D4800F08EF841
:104E0000012806D102F05EFA40F22551084800F070
:104E10005DF840F22661064800F080F8012806D1CE
:104E200002F058FA40F22661014800F04FF810BD38
:104E30000038014010B540F225510F4800F06EF8DF
:104E4000C0B10E48B0F86400312810DA0A4800F00A
:104E500021F9C1B20948B0F86420B0F86400401CE0
:104E600083B20648A0F864306630815402E00248FC
:104E700000F010F910BD0000004400405C03002069
:104E800010B540F225510F4800F048F8C0B10E4867
:104E9000B0F89800312810DA0A4800F0FBF8C1B2E7
:104EA0000948B0F89820B0F89800401C83B2064832
:104EB000A0F898309A30815402E0024800F0EAF8F5
:104EC00010BD0000004800405C03002010B5002227
:104ED000002340F66A14A14200D100BF0A12012447
:104EE0009440A3B2DC43048010BD21B1828942F416
:104EF0000052828104E082894DF6FF731A4082815C
:104F0000704702460020B1F5007F00D100BF138832
:104F10000B400BB1012000E00020704770B5024645
:104F2000002400230025002040F66A16B14200D17B
:104F300000BFC1F3421501F01F03012606FA03F377
:104F4000012D02D19689334006E0022D02D1168A46
:104F5000334001E0968A33400C12012606FA04F42D
:104F60001688344013B10CB1012000E0002070BD60
:104F7000F0B50346002400260025002040F66A17FD
:104F8000B94200D100BF1846C1F3421401F01F0618
:104F9000012707FA06F5012C01D10C3004E0022CA0
:104FA00001D1103000E014301AB107682F430760B8
:104FB00002E00768AF430760F0BD00002DE9F0474D
:104FC00086B005460E460024A24600BFA146002733
:104FD000B08900B100BF2F462C8A4CF6FF70044008
:104FE000F08804432C82AC894EF6F3100440B0885C
:104FF00031890843718908430443AC81AC8A4FF678
:10500000FF400440B0890443AC8201A8FEF744FA93
:105010001F48874202D1DDF810A001E0DDF80CA0A6
:10502000A88900F4004040B10AEBCA0000EB0A1066
:1050300031684900B0FBF1F807E00AEBCA0000EB69
:105040000A1031688900B0FBF1F86420B8FBF0F079
:1050500004012009642101FB1089A88900F40040A3
:1050600040B1322000EBC900B0FBF1F000F00700C6
:10507000044308E0322000EB09106421B0FBF1F09A
:1050800000F00F0004432C8106B0BDE8F08700005B
:105090000038014001468888C0F308007047C1F31A
:1050A00008028280704700BFFEE7704710B50024F9
:1050B00098480078042877D006DC01280BD0022815
:1050C00024D003286DD149E005286BD006286AD08A
:1050D0001428F7D1EFE006E0FCF75EF88E4908608F
:1050E000642002F001FC8C48006820B92046611C55
:1050F000CCB20A28F0DB8848006818B10220854944
:10510000087002E014208349087001E183480068B8
:1051100000BB0120824908608249C1F8B40182497C
:10512000C1F888018148B0F87A0140F480507F4985
:10513000A1F87A010846B0F87A0140F48060A1F83D
:105140007A010A2174480068FEF780FD0320714946
:10515000087002E004206F490870D9E06E480068CA
:10516000FDF77EF902281AD100206D4908606D49CB
:10517000C1F8B4016C49C1F888016C48B0F87A01F3
:1051800020F480506949A1F87A010846B0F87A0104
:1051900020F48060A1F87A0104205E490870B7E02D
:1051A00002E0B4E029E05DE0002061490860614967
:1051B00008605E49086A0021FBF714FB03D2012056
:1051C0005749091F08605949086A0021FBF70AFB83
:1051D00002D20120584908600A214F480068FEF7B2
:1051E00035FD05204B4908705048B0F87A0140F071
:1051F00010004E49A1F87A0100BF47480068FDF74A
:105200002FF902282DD100204549091F0860464981
:10521000C1F8A80101204249086041491C310860D9
:105220004149C1F888014148B0F87A0120F01000E6
:105230003E49A1F87A010846B0F87A0140F480505E
:10524000A1F87A010846B0F87A0140F48060A1F82C
:105250007A010A2130480068FEF7F8FC06202D4943
:10526000087055E02C480068FDF7FAF8022821D1B3
:1052700000202B4908602B49C1F8B4012A49C1F824
:1052800088012A48B0F87A0120F480502749A1F813
:105290007A010846B0F87A0120F48060A1F87A011A
:1052A00000201C4908701C480068FCF7D3F9012055
:1052B000224908702CE00020194908390860194972
:1052C000C1F8B80116492431086015491C3108603D
:1052D000194920390860091D0860091D0860104936
:1052E000091F086014490860134908310860124911
:1052F000091F08600A4908600C49A1F87A010648AC
:105300000068FCF7A7F901200C49087000E000BF15
:1053100000BF10BD4800002044000020348123421B
:105320009881224200802242000024425C03002037
:10533000380000203C000020A80124423400002056
:1053400038B501210820FEF781F84FF44060ADF830
:10535000000010208DF8030003208DF8020069463C
:105360000A48FCF7D3FE4FF440610848FCF7ADFF54
:10537000A52000F00DF8044604F0FD04052000F01F
:1053800045FA2146A52000F0CEF838BD000C0140BA
:1053900070B504460120FDF7A9F9DA210120FDF7D7
:1053A00023FA0120FDF756F908B9002070BD214607
:1053B0000120FDF719FA0120FDF74CF908B900208A
:1053C000F4E70120FDF792F9DB210120FDF70CFA4B
:1053D0000120FDF73FF908B90020E7E70120FDF7BC
:1053E000DFF8054600210120FDF79EF80120FDF7BA
:1053F000BFF92846DAE72DE9F04105460E46174683
:105400000120FDF773F9DA210120FDF7EDF9012004
:10541000FDF720F910B90020BDE8F08129460120F0
:10542000FDF7E2F90120FDF715F908B90020F3E7CF
:105430000120FDF75BF9DB210120FDF7D5F9012003
:10544000FDF708F908B90020E6E7002409E001208B
:10545000FDF7A6F8305501210846FDF765F8601CF8
:10546000C4B2BC42F3DB0120FDF782F90120D3E78F
:105470002DE9FC4105460E4672B60A21302000F0A7
:1054800052F840F6C41000F0C1F905226946062022
:10549000FFF7B1FF62B69DF8000080280BDA9DF897
:1054A000000000049DF8011040EA01209DF8021060
:1054B00040EA01040BE09DF8000000049DF8011093
:1054C00040EA01209DF80210084340F07F44204646
:1054D000FBF74AF980464FF09641FAF77FFF0746FF
:1054E0004FF09241FAF748FF30609DF803008028A2
:1054F00006DA9DF804009DF8031040EA012407E055
:105500009DF804009DF8031040EA0120A0F58034C6
:105510002046FBF729F907464FF08741FAF75EFF6F
:105520002860BDE8FC8170B504460D460120FDF7FA
:10553000DDF8DA210120FDF757F90120FDF78AF89F
:1055400008B9002070BD21460120FDF74DF901206A
:10555000FDF780F808B90020F4E729460120FDF79F
:1055600043F90120FDF776F808B90020EAE70120A9
:10557000FDF7FEF80120E5E70FB4054B10B503A9D0
:10558000044A029800F018F810BC5DF814FB000003
:1055900021660008C800002002E008C8121F08C1E8
:1055A000002AFAD170477047002001E001C1121FA4
:1055B000002AFBD1704700002DE9FF4F8BB09A46BF
:1055C0000F460546002606E025280BD052460D99C9
:1055D00090476D1C761C28780028F5D10FB0304616
:1055E000BDE8F08F0024A0460122604900E004439A
:1055F00015F8013F203B02FA03F00842F7D1287862
:105600002E2817D115F8010F44F004042A280ED0D3
:105610006FF02F022878A0F1300109290AD808EB91
:10562000880102EB410100EB01086D1CF2E757F81D
:10563000048B6D1C287869283ED006DC0028CDD06C
:1056400063280BD0642804D136E0732810D0752865
:105650004BD052460D999047761C85E017F8040B05
:105660008DF8000000208DF80100E946012003E0DC
:1056700057F8049B4FF0FF3061074FF0000401D44E
:105680000AE0641C44450DDA8442FADB19F8041080
:105690000029F6D106E0641C8442FCDB19F80410F2
:1056A0000029F8D1264404E019F8010B52460D995F
:1056B0009047641EF8D257E001CF4FF00A0B002844
:1056C00002DA40422D2102E0210504D52B218DF87C
:1056D0002410012103E0E10705D02021F7E70DF1B7
:1056E000200908910CE00021F9E701CF4FF00A0BE7
:1056F000F9E75946FBF780F801F1300209F8012D6E
:105700000028F6D1ADEB090000F1200B600701D4B1
:105710004FF00108D84502DDA8EB0B0000E00020A7
:105720008046002406E009A85246005D0D99904786
:10573000641C761C08988442F5DB04E03020524655
:105740000D999047761CB8F10001A8F10108F5DC2D
:1057500005E019F8010B52460D999047761CBBF1F4
:105760000001ABF1010BF4DC6D1C34E709280100EA
:1057700010B50420FEF74AFD104800681049B0FB40
:10578000F1F0104908700D4800680D49B0FBF1F4C4
:105790004FF47A70444301200B4908804FF0E02019
:1057A000006940F002004FF0E021086108464461C2
:1057B000006940F00100086110BD0000B400002045
:1057C00040420F009A0000209C00002070B5044663
:1057D00003F036FA012810D00B480088844206D323
:1057E00009480088B4FBF0F5284602F07DF8064829
:1057F0000088B4FBF0F100FB11444FF47A7104FB14
:1058000001F000F003F870BD9C00002070B5034665
:1058100000224FF0E02675690D4E367803FB06F442
:105820004FF0E026B16910E04FF0E026B069884201
:105830000BD0884202D20E1A324402E02E1A0E44D5
:1058400032440146A24200D300E0EDE700BF70BD44
:105850009A00002030B50446002504E04FF47A7029
:10586000FFF7D4FF6D1CA542F8D330BD2DE9F04100
:1058700080460C4615461E4600270A200A49087035
:10588000334607222946204602F0EAFB012801D0D0
:10589000032706E044F6206002F03EFC012800D019
:1058A00003273846BDE8F081670200202DE9F0416A
:1058B00004460D46164600270D480088032813DBD2
:1058C0000B4801880B48006801F0E4FC60B9094806
:1058D00000680078207006480088801E30800548E7
:1058E0000068401C286000E005273846BDE8F081CC
:1058F0005C020020580200202DE9F04104460D46CC
:1059000016464FF000081648007818BB681E154967
:105910000860012014490880124800680470084695
:10592000008830440880084601880E48006801F06D
:10593000B1FC07460C490888411C0B4A11800B49F1
:1059400009680F5401200A4908700121002001F064
:10595000FFFD01E04FF005084046BDE8F081000082
:10596000550200206002002064020020580200203E
:105970005402002010B50021012001F0E9FD0020B3
:105980000249087002F056FB10BD000055020020CD
:1059900010B50021084601F0DBFD01F0FBFD10BD54
:1059A00010B5002406480078012806D10548006893
:1059B000804700200249087000E00624204610BD00
:1059C000460100204C0100202DE9F05F06460D46FF
:1059D0004FF0000B2888052844D170784FEA002A40
:1059E000B07840EA0A0AF078040230790443012CC6
:1059F00035DBB4F5FA6F32DA374600202880012013
:105A000007F8010B2888401C288004F0070040B1EB
:105A10002046E11704EB5171C910491C01F0FF0841
:105A200005E02046E11704EB5171C1F3C70807F800
:105A3000018B2888401C2880002322465146384686
:105A400000F030FC8146B9F1000F04D0484601F067
:105A5000EBFB834608E028884044288004E04FF0B0
:105A6000030B01E04FF0030B5846BDE8F09F2DE912
:105A7000F05F06460D464FF0000B2888052843D1FD
:105A800070784FEA002AB07840EA0A0AF0780402F7
:105A900030790443012C34DBB4F5FA6F31DA374640
:105AA00000202880022007F8010B2888401C28804D
:105AB00004F0070040B12046E11704EB5171C91012
:105AC000491C01F0FF0805E02046E11704EB517185
:105AD000C1F3C70807F8018B2888401C288022469C
